{
  "address": "0x67c768Ab102C7F458DFA8c5c60743A9Ec58c6255",
  "abi": [
    {
      "inputs": [
        {
          "internalType": "uint256",
          "name": "subscriptionId",
          "type": "uint256"
        },
        {
          "internalType": "bytes32",
          "name": "keyHash",
          "type": "bytes32"
        },
        {
          "internalType": "uint256",
          "name": "interval",
          "type": "uint256"
        },
        {
          "internalType": "uint256",
          "name": "entranceFee",
          "type": "uint256"
        },
        {
          "internalType": "address",
          "name": "vrfCoordinator",
          "type": "address"
        }
      ],
      "stateMutability": "nonpayable",
      "type": "constructor"
    },
    {
      "inputs": [
        {
          "internalType": "address",
          "name": "have",
          "type": "address"
        },
        {
          "internalType": "address",
          "name": "want",
          "type": "address"
        }
      ],
      "name": "OnlyCoordinatorCanFulfill",
      "type": "error"
    },
    {
      "inputs": [
        {
          "internalType": "address",
          "name": "have",
          "type": "address"
        },
        {
          "internalType": "address",
          "name": "owner",
          "type": "address"
        },
        {
          "internalType": "address",
          "name": "coordinator",
          "type": "address"
        }
      ],
      "name": "OnlyOwnerOrCoordinator",
      "type": "error"
    },
    {
      "inputs": [],
      "name": "Raffle__RaffleNotOpen",
      "type": "error"
    },
    {
      "inputs": [],
      "name": "Raffle__SendMoreToEnterRaffle",
      "type": "error"
    },
    {
      "inputs": [],
      "name": "Raffle__TransferFailed",
      "type": "error"
    },
    {
      "inputs": [
        {
          "internalType": "uint256",
          "name": "currentBalance",
          "type": "uint256"
        },
        {
          "internalType": "uint256",
          "name": "numPlayers",
          "type": "uint256"
        },
        {
          "internalType": "uint256",
          "name": "raffleState",
          "type": "uint256"
        }
      ],
      "name": "Raffle__UpkeepNotNeeded",
      "type": "error"
    },
    {
      "inputs": [],
      "name": "ZeroAddress",
      "type": "error"
    },
    {
      "anonymous": false,
      "inputs": [
        {
          "indexed": false,
          "internalType": "address",
          "name": "vrfCoordinator",
          "type": "address"
        }
      ],
      "name": "CoordinatorSet",
      "type": "event"
    },
    {
      "anonymous": false,
      "inputs": [
        {
          "indexed": true,
          "internalType": "address",
          "name": "from",
          "type": "address"
        },
        {
          "indexed": true,
          "internalType": "address",
          "name": "to",
          "type": "address"
        }
      ],
      "name": "OwnershipTransferRequested",
      "type": "event"
    },
    {
      "anonymous": false,
      "inputs": [
        {
          "indexed": true,
          "internalType": "address",
          "name": "from",
          "type": "address"
        },
        {
          "indexed": true,
          "internalType": "address",
          "name": "to",
          "type": "address"
        }
      ],
      "name": "OwnershipTransferred",
      "type": "event"
    },
    {
      "anonymous": false,
      "inputs": [
        {
          "indexed": true,
          "internalType": "address",
          "name": "player",
          "type": "address"
        }
      ],
      "name": "RaffleEnter",
      "type": "event"
    },
    {
      "anonymous": false,
      "inputs": [
        {
          "indexed": true,
          "internalType": "uint256",
          "name": "requestId",
          "type": "uint256"
        }
      ],
      "name": "RequestedRaffleWinner",
      "type": "event"
    },
    {
      "anonymous": false,
      "inputs": [
        {
          "indexed": true,
          "internalType": "address",
          "name": "winner",
          "type": "address"
        }
      ],
      "name": "WinnerPicked",
      "type": "event"
    },
    {
      "inputs": [],
      "name": "acceptOwnership",
      "outputs": [],
      "stateMutability": "nonpayable",
      "type": "function"
    },
    {
      "inputs": [
        {
          "internalType": "bytes",
          "name": "",
          "type": "bytes"
        }
      ],
      "name": "checkUpkeep",
      "outputs": [
        {
          "internalType": "bool",
          "name": "upkeepNeeded",
          "type": "bool"
        },
        {
          "internalType": "bytes",
          "name": "",
          "type": "bytes"
        }
      ],
      "stateMutability": "view",
      "type": "function"
    },
    {
      "inputs": [],
      "name": "enterRaffle",
      "outputs": [],
      "stateMutability": "payable",
      "type": "function"
    },
    {
      "inputs": [],
      "name": "getEntranceFee",
      "outputs": [
        {
          "internalType": "uint256",
          "name": "",
          "type": "uint256"
        }
      ],
      "stateMutability": "view",
      "type": "function"
    },
    {
      "inputs": [],
      "name": "getInterval",
      "outputs": [
        {
          "internalType": "uint256",
          "name": "",
          "type": "uint256"
        }
      ],
      "stateMutability": "view",
      "type": "function"
    },
    {
      "inputs": [],
      "name": "getLastTimeStamp",
      "outputs": [
        {
          "internalType": "uint256",
          "name": "",
          "type": "uint256"
        }
      ],
      "stateMutability": "view",
      "type": "function"
    },
    {
      "inputs": [],
      "name": "getNumWords",
      "outputs": [
        {
          "internalType": "uint256",
          "name": "",
          "type": "uint256"
        }
      ],
      "stateMutability": "pure",
      "type": "function"
    },
    {
      "inputs": [],
      "name": "getNumberOfPlayers",
      "outputs": [
        {
          "internalType": "uint256",
          "name": "",
          "type": "uint256"
        }
      ],
      "stateMutability": "view",
      "type": "function"
    },
    {
      "inputs": [
        {
          "internalType": "uint256",
          "name": "index",
          "type": "uint256"
        }
      ],
      "name": "getPlayer",
      "outputs": [
        {
          "internalType": "address",
          "name": "",
          "type": "address"
        }
      ],
      "stateMutability": "view",
      "type": "function"
    },
    {
      "inputs": [],
      "name": "getRaffleState",
      "outputs": [
        {
          "internalType": "enum Raffle.RaffleState",
          "name": "",
          "type": "uint8"
        }
      ],
      "stateMutability": "view",
      "type": "function"
    },
    {
      "inputs": [],
      "name": "getRecentWinner",
      "outputs": [
        {
          "internalType": "address",
          "name": "",
          "type": "address"
        }
      ],
      "stateMutability": "view",
      "type": "function"
    },
    {
      "inputs": [],
      "name": "getRequestConfirmations",
      "outputs": [
        {
          "internalType": "uint256",
          "name": "",
          "type": "uint256"
        }
      ],
      "stateMutability": "pure",
      "type": "function"
    },
    {
      "inputs": [],
      "name": "owner",
      "outputs": [
        {
          "internalType": "address",
          "name": "",
          "type": "address"
        }
      ],
      "stateMutability": "view",
      "type": "function"
    },
    {
      "inputs": [
        {
          "internalType": "bytes",
          "name": "",
          "type": "bytes"
        }
      ],
      "name": "performUpkeep",
      "outputs": [],
      "stateMutability": "nonpayable",
      "type": "function"
    },
    {
      "inputs": [
        {
          "internalType": "uint256",
          "name": "requestId",
          "type": "uint256"
        },
        {
          "internalType": "uint256[]",
          "name": "randomWords",
          "type": "uint256[]"
        }
      ],
      "name": "rawFulfillRandomWords",
      "outputs": [],
      "stateMutability": "nonpayable",
      "type": "function"
    },
    {
      "inputs": [],
      "name": "s_vrfCoordinator",
      "outputs": [
        {
          "internalType": "contract IVRFCoordinatorV2Plus",
          "name": "",
          "type": "address"
        }
      ],
      "stateMutability": "view",
      "type": "function"
    },
    {
      "inputs": [
        {
          "internalType": "address",
          "name": "_vrfCoordinator",
          "type": "address"
        }
      ],
      "name": "setCoordinator",
      "outputs": [],
      "stateMutability": "nonpayable",
      "type": "function"
    },
    {
      "inputs": [
        {
          "internalType": "address",
          "name": "to",
          "type": "address"
        }
      ],
      "name": "transferOwnership",
      "outputs": [],
      "stateMutability": "nonpayable",
      "type": "function"
    }
  ],
  "transactionHash": "0x8ffe0b7bda2374ed1e72b4301da2c2807fcdc171f7df93fbc7a4f30e1f3943a9",
  "args": [
    "96953916105162490016307272195727599139644894232947591889193268513634181742277",
    "0x787d74caea10b2b357790d5b5247c2f63d1d91572a9846f780606e4d953677ae",
    "30",
    "1000000000000000",
    "0x9DdfaCa8183c41ad55329BdeeD9F6A8d53168B1B"
  ],
  "numDeployments": 12,
  "solcInputHash": "5afb50dcb9d6c5efd53be3e00d4d24dc",
  "bytecode": "0x61010060405234801561001157600080fd5b506040516124ad3803806124ad8339818101604052810190610033919061042c565b80338060008073ffffffffffffffffffffffffffffffffffffffff168273ffffffffffffffffffffffffffffffffffffffff16036100a6576040517f08c379a000000000000000000000000000000000000000000000000000000000815260040161009d90610504565b60405180910390fd5b816000806101000a81548173ffffffffffffffffffffffffffffffffffffffff021916908373ffffffffffffffffffffffffffffffffffffffff160217905550600073ffffffffffffffffffffffffffffffffffffffff168173ffffffffffffffffffffffffffffffffffffffff161461012a576101298161023160201b60201c565b5b505050600073ffffffffffffffffffffffffffffffffffffffff168173ffffffffffffffffffffffffffffffffffffffff1603610193576040517fd92e233d00000000000000000000000000000000000000000000000000000000815260040160405180910390fd5b80600260006101000a81548173ffffffffffffffffffffffffffffffffffffffff021916908373ffffffffffffffffffffffffffffffffffffffff160217905550508360e081815250508260a081815250508460c0818152505081608081815250506000600560146101000a81548160ff0219169083600181111561021b5761021a610524565b5b02179055504260048190555050505050506105bf565b3373ffffffffffffffffffffffffffffffffffffffff168173ffffffffffffffffffffffffffffffffffffffff160361029f576040517f08c379a00000000000000000000000000000000000000000000000000000000081526004016102969061059f565b60405180910390fd5b80600160006101000a81548173ffffffffffffffffffffffffffffffffffffffff021916908373ffffffffffffffffffffffffffffffffffffffff1602179055508073ffffffffffffffffffffffffffffffffffffffff1660008054906101000a900473ffffffffffffffffffffffffffffffffffffffff1673ffffffffffffffffffffffffffffffffffffffff167fed8889f560326eb138920d842192f0eb3dd22b4f139c87a2c57538e05bae127860405160405180910390a350565b600080fd5b6000819050919050565b61037581610362565b811461038057600080fd5b50565b6000815190506103928161036c565b92915050565b6000819050919050565b6103ab81610398565b81146103b657600080fd5b50565b6000815190506103c8816103a2565b92915050565b600073ffffffffffffffffffffffffffffffffffffffff82169050919050565b60006103f9826103ce565b9050919050565b610409816103ee565b811461041457600080fd5b50565b60008151905061042681610400565b92915050565b600080600080600060a086880312156104485761044761035d565b5b600061045688828901610383565b9550506020610467888289016103b9565b945050604061047888828901610383565b935050606061048988828901610383565b925050608061049a88828901610417565b9150509295509295909350565b600082825260208201905092915050565b7f43616e6e6f7420736574206f776e657220746f207a65726f0000000000000000600082015250565b60006104ee6018836104a7565b91506104f9826104b8565b602082019050919050565b6000602082019050818103600083015261051d816104e1565b9050919050565b7f4e487b7100000000000000000000000000000000000000000000000000000000600052602160045260246000fd5b7f43616e6e6f74207472616e7366657220746f2073656c66000000000000000000600082015250565b60006105896017836104a7565b915061059482610553565b602082019050919050565b600060208201905081810360008301526105b88161057c565b9050919050565b60805160a05160c05160e051611ea761060660003960006107710152600061079701526000818161091b0152610d6301526000818161040001526105030152611ea76000f3fe6080604052600436106101095760003560e01c806379ba5097116100955780639eccacf6116100645780639eccacf614610315578063c1c244e814610340578063e55ae4e81461036b578063f2fde38b146103a8578063fd6673f5146103d157610109565b806379ba50971461027f5780638da5cb5b146102965780638ea98117146102c157806391ad27b4146102ea57610109565b80634585e33b116100dc5780634585e33b14610197578063473f1ddc146101c057806353a2c19a146101eb5780635f1b0fd8146102165780636e04ff0d1461024157610109565b806309bc33a71461010e578063115cbaf5146101395780631fe543e3146101645780632cfcc5391461018d575b600080fd5b34801561011a57600080fd5b506101236103fc565b6040516101309190611367565b60405180910390f35b34801561014557600080fd5b5061014e610424565b60405161015b91906113f9565b60405180910390f35b34801561017057600080fd5b5061018b600480360381019061018691906114b9565b61043b565b005b610195610501565b005b3480156101a357600080fd5b506101be60048036038101906101b9919061156f565b610670565b005b3480156101cc57600080fd5b506101d5610892565b6040516101e291906115fd565b60405180910390f35b3480156101f757600080fd5b506102006108bc565b60405161020d9190611367565b60405180910390f35b34801561022257600080fd5b5061022b6108cb565b6040516102389190611367565b60405180910390f35b34801561024d57600080fd5b5061026860048036038101906102639190611759565b6108d8565b60405161027692919061183c565b60405180910390f35b34801561028b57600080fd5b506102946109c0565b005b3480156102a257600080fd5b506102ab610b55565b6040516102b891906115fd565b60405180910390f35b3480156102cd57600080fd5b506102e860048036038101906102e39190611898565b610b7e565b005b3480156102f657600080fd5b506102ff610d5f565b60405161030c9190611367565b60405180910390f35b34801561032157600080fd5b5061032a610d87565b6040516103379190611924565b60405180910390f35b34801561034c57600080fd5b50610355610dad565b6040516103629190611367565b60405180910390f35b34801561037757600080fd5b50610392600480360381019061038d919061193f565b610db7565b60405161039f91906115fd565b60405180910390f35b3480156103b457600080fd5b506103cf60048036038101906103ca9190611898565b610dff565b005b3480156103dd57600080fd5b506103e6610e13565b6040516103f39190611367565b60405180910390f35b60007f0000000000000000000000000000000000000000000000000000000000000000905090565b6000600560149054906101000a900460ff16905090565b600260009054906101000a900473ffffffffffffffffffffffffffffffffffffffff1673ffffffffffffffffffffffffffffffffffffffff163373ffffffffffffffffffffffffffffffffffffffff16146104f15733600260009054906101000a900473ffffffffffffffffffffffffffffffffffffffff166040517f1cf993f40000000000000000000000000000000000000000000000000000000081526004016104e892919061196c565b60405180910390fd5b6104fc838383610e20565b505050565b7f000000000000000000000000000000000000000000000000000000000000000034101561055b576040517f3038c00a00000000000000000000000000000000000000000000000000000000815260040160405180910390fd5b6000600181111561056f5761056e611382565b5b600560149054906101000a900460ff16600181111561059157610590611382565b5b146105c8576040517fd24a271400000000000000000000000000000000000000000000000000000000815260040160405180910390fd5b6003339080600181540180825580915050600190039060005260206000200160009091909190916101000a81548173ffffffffffffffffffffffffffffffffffffffff021916908373ffffffffffffffffffffffffffffffffffffffff1602179055503373ffffffffffffffffffffffffffffffffffffffff167f0805e1d667bddb8a95f0f09880cf94f403fb596ce79928d9f29b74203ba284d460405160405180910390a2565b600061068a604051806020016040528060008152506108d8565b509050806106f95747600380549050600560149054906101000a900460ff1660018111156106bb576106ba611382565b5b6040517f584327aa0000000000000000000000000000000000000000000000000000000081526004016106f093929190611995565b60405180910390fd5b6001600560146101000a81548160ff0219169083600181111561071f5761071e611382565b5b02179055506000600260009054906101000a900473ffffffffffffffffffffffffffffffffffffffff1673ffffffffffffffffffffffffffffffffffffffff16639b1c385e6040518060c001604052807f000000000000000000000000000000000000000000000000000000000000000081526020017f00000000000000000000000000000000000000000000000000000000000000008152602001600361ffff16815260200161ea6063ffffffff168152602001600163ffffffff1681526020016107fb604051806020016040528060011515815250611053565b8152506040518263ffffffff1660e01b815260040161081a9190611b03565b6020604051808303816000875af1158015610839573d6000803e3d6000fd5b505050506040513d601f19601f8201168201806040525081019061085d9190611b3a565b9050807fcd6e45c8998311cab7e9d4385596cac867e20a0587194b954fa3a731c93ce78b60405160405180910390a250505050565b6000600560009054906101000a900473ffffffffffffffffffffffffffffffffffffffff16905090565b6000600163ffffffff16905090565b6000600361ffff16905090565b600060606000600560149054906101000a900460ff166001811115610900576108ff611382565b5b6000600181111561091457610913611382565b5b14905060007f0000000000000000000000000000000000000000000000000000000000000000600454426109489190611b96565b119050600080600380549050119050600080471190508280156109685750835b80156109715750805b801561097a5750815b9550856040518060400160405280600381526020017f30783000000000000000000000000000000000000000000000000000000000008152509550955050505050915091565b600160009054906101000a900473ffffffffffffffffffffffffffffffffffffffff1673ffffffffffffffffffffffffffffffffffffffff163373ffffffffffffffffffffffffffffffffffffffff1614610a50576040517f08c379a0000000000000000000000000000000000000000000000000000000008152600401610a4790611c27565b60405180910390fd5b60008060009054906101000a900473ffffffffffffffffffffffffffffffffffffffff169050336000806101000a81548173ffffffffffffffffffffffffffffffffffffffff021916908373ffffffffffffffffffffffffffffffffffffffff1602179055506000600160006101000a81548173ffffffffffffffffffffffffffffffffffffffff021916908373ffffffffffffffffffffffffffffffffffffffff1602179055503373ffffffffffffffffffffffffffffffffffffffff168173ffffffffffffffffffffffffffffffffffffffff167f8be0079c531659141344cd1fd0a4f28419497f9722a3daafe3b4186f6b6457e060405160405180910390a350565b60008060009054906101000a900473ffffffffffffffffffffffffffffffffffffffff16905090565b610b86610b55565b73ffffffffffffffffffffffffffffffffffffffff163373ffffffffffffffffffffffffffffffffffffffff1614158015610c0f5750600260009054906101000a900473ffffffffffffffffffffffffffffffffffffffff1673ffffffffffffffffffffffffffffffffffffffff163373ffffffffffffffffffffffffffffffffffffffff1614155b15610c7e5733610c1d610b55565b600260009054906101000a900473ffffffffffffffffffffffffffffffffffffffff166040517f061db9c1000000000000000000000000000000000000000000000000000000008152600401610c7593929190611c47565b60405180910390fd5b600073ffffffffffffffffffffffffffffffffffffffff168173ffffffffffffffffffffffffffffffffffffffff1603610ce4576040517fd92e233d00000000000000000000000000000000000000000000000000000000815260040160405180910390fd5b80600260006101000a81548173ffffffffffffffffffffffffffffffffffffffff021916908373ffffffffffffffffffffffffffffffffffffffff1602179055507fd1a6a14209a385a964d036e404cb5cfb71f4000cdb03c9366292430787261be681604051610d5491906115fd565b60405180910390a150565b60007f0000000000000000000000000000000000000000000000000000000000000000905090565b600260009054906101000a900473ffffffffffffffffffffffffffffffffffffffff1681565b6000600454905090565b600060038281548110610dcd57610dcc611c7e565b5b9060005260206000200160009054906101000a900473ffffffffffffffffffffffffffffffffffffffff169050919050565b610e076110eb565b610e108161117b565b50565b6000600380549050905090565b600060038054905083836000818110610e3c57610e3b611c7e565b5b90506020020135610e4d9190611cdc565b9050600060038281548110610e6557610e64611c7e565b5b9060005260206000200160009054906101000a900473ffffffffffffffffffffffffffffffffffffffff16905080600560006101000a81548173ffffffffffffffffffffffffffffffffffffffff021916908373ffffffffffffffffffffffffffffffffffffffff160217905550600067ffffffffffffffff811115610eee57610eed61162e565b5b604051908082528060200260200182016040528015610f1c5781602001602082028036833780820191505090505b5060039080519060200190610f329291906112a7565b506000600560146101000a81548160ff02191690836001811115610f5957610f58611382565b5b02179055504260048190555060008173ffffffffffffffffffffffffffffffffffffffff1647604051610f8b90611d3e565b60006040518083038185875af1925050503d8060008114610fc8576040519150601f19603f3d011682016040523d82523d6000602084013e610fcd565b606091505b5050905080611008576040517fa1d04b3900000000000000000000000000000000000000000000000000000000815260040160405180910390fd5b8173ffffffffffffffffffffffffffffffffffffffff167f5b690ec4a06fe979403046eaeea5b3ce38524683c3001f662c8b5a829632f7df60405160405180910390a2505050505050565b60607f92fd13387c7fe7befbc38d303d6468778fb9731bc4583f17d92989c6fcfdeaaa826040516024016110879190611d7e565b604051602081830303815290604052907bffffffffffffffffffffffffffffffffffffffffffffffffffffffff19166020820180517bffffffffffffffffffffffffffffffffffffffffffffffffffffffff83818316178352505050509050919050565b60008054906101000a900473ffffffffffffffffffffffffffffffffffffffff1673ffffffffffffffffffffffffffffffffffffffff163373ffffffffffffffffffffffffffffffffffffffff1614611179576040517f08c379a000000000000000000000000000000000000000000000000000000000815260040161117090611de5565b60405180910390fd5b565b3373ffffffffffffffffffffffffffffffffffffffff168173ffffffffffffffffffffffffffffffffffffffff16036111e9576040517f08c379a00000000000000000000000000000000000000000000000000000000081526004016111e090611e51565b60405180910390fd5b80600160006101000a81548173ffffffffffffffffffffffffffffffffffffffff021916908373ffffffffffffffffffffffffffffffffffffffff1602179055508073ffffffffffffffffffffffffffffffffffffffff1660008054906101000a900473ffffffffffffffffffffffffffffffffffffffff1673ffffffffffffffffffffffffffffffffffffffff167fed8889f560326eb138920d842192f0eb3dd22b4f139c87a2c57538e05bae127860405160405180910390a350565b828054828255906000526020600020908101928215611320579160200282015b8281111561131f5782518260006101000a81548173ffffffffffffffffffffffffffffffffffffffff021916908373ffffffffffffffffffffffffffffffffffffffff160217905550916020019190600101906112c7565b5b50905061132d9190611331565b5090565b5b8082111561134a576000816000905550600101611332565b5090565b6000819050919050565b6113618161134e565b82525050565b600060208201905061137c6000830184611358565b92915050565b7f4e487b7100000000000000000000000000000000000000000000000000000000600052602160045260246000fd5b600281106113c2576113c1611382565b5b50565b60008190506113d3826113b1565b919050565b60006113e3826113c5565b9050919050565b6113f3816113d8565b82525050565b600060208201905061140e60008301846113ea565b92915050565b6000604051905090565b600080fd5b600080fd5b6114318161134e565b811461143c57600080fd5b50565b60008135905061144e81611428565b92915050565b600080fd5b600080fd5b600080fd5b60008083601f84011261147957611478611454565b5b8235905067ffffffffffffffff81111561149657611495611459565b5b6020830191508360208202830111156114b2576114b161145e565b5b9250929050565b6000806000604084860312156114d2576114d161141e565b5b60006114e08682870161143f565b935050602084013567ffffffffffffffff81111561150157611500611423565b5b61150d86828701611463565b92509250509250925092565b60008083601f84011261152f5761152e611454565b5b8235905067ffffffffffffffff81111561154c5761154b611459565b5b6020830191508360018202830111156115685761156761145e565b5b9250929050565b600080602083850312156115865761158561141e565b5b600083013567ffffffffffffffff8111156115a4576115a3611423565b5b6115b085828601611519565b92509250509250929050565b600073ffffffffffffffffffffffffffffffffffffffff82169050919050565b60006115e7826115bc565b9050919050565b6115f7816115dc565b82525050565b600060208201905061161260008301846115ee565b92915050565b600080fd5b6000601f19601f8301169050919050565b7f4e487b7100000000000000000000000000000000000000000000000000000000600052604160045260246000fd5b6116668261161d565b810181811067ffffffffffffffff821117156116855761168461162e565b5b80604052505050565b6000611698611414565b90506116a4828261165d565b919050565b600067ffffffffffffffff8211156116c4576116c361162e565b5b6116cd8261161d565b9050602081019050919050565b82818337600083830152505050565b60006116fc6116f7846116a9565b61168e565b90508281526020810184848401111561171857611717611618565b5b6117238482856116da565b509392505050565b600082601f8301126117405761173f611454565b5b81356117508482602086016116e9565b91505092915050565b60006020828403121561176f5761176e61141e565b5b600082013567ffffffffffffffff81111561178d5761178c611423565b5b6117998482850161172b565b91505092915050565b60008115159050919050565b6117b7816117a2565b82525050565b600081519050919050565b600082825260208201905092915050565b60005b838110156117f75780820151818401526020810190506117dc565b60008484015250505050565b600061180e826117bd565b61181881856117c8565b93506118288185602086016117d9565b6118318161161d565b840191505092915050565b600060408201905061185160008301856117ae565b81810360208301526118638184611803565b90509392505050565b611875816115dc565b811461188057600080fd5b50565b6000813590506118928161186c565b92915050565b6000602082840312156118ae576118ad61141e565b5b60006118bc84828501611883565b91505092915050565b6000819050919050565b60006118ea6118e56118e0846115bc565b6118c5565b6115bc565b9050919050565b60006118fc826118cf565b9050919050565b600061190e826118f1565b9050919050565b61191e81611903565b82525050565b60006020820190506119396000830184611915565b92915050565b6000602082840312156119555761195461141e565b5b60006119638482850161143f565b91505092915050565b600060408201905061198160008301856115ee565b61198e60208301846115ee565b9392505050565b60006060820190506119aa6000830186611358565b6119b76020830185611358565b6119c46040830184611358565b949350505050565b6000819050919050565b6119df816119cc565b82525050565b6119ee8161134e565b82525050565b600061ffff82169050919050565b611a0b816119f4565b82525050565b600063ffffffff82169050919050565b611a2a81611a11565b82525050565b600082825260208201905092915050565b6000611a4c826117bd565b611a568185611a30565b9350611a668185602086016117d9565b611a6f8161161d565b840191505092915050565b600060c083016000830151611a9260008601826119d6565b506020830151611aa560208601826119e5565b506040830151611ab86040860182611a02565b506060830151611acb6060860182611a21565b506080830151611ade6080860182611a21565b5060a083015184820360a0860152611af68282611a41565b9150508091505092915050565b60006020820190508181036000830152611b1d8184611a7a565b905092915050565b600081519050611b3481611428565b92915050565b600060208284031215611b5057611b4f61141e565b5b6000611b5e84828501611b25565b91505092915050565b7f4e487b7100000000000000000000000000000000000000000000000000000000600052601160045260246000fd5b6000611ba18261134e565b9150611bac8361134e565b9250828203905081811115611bc457611bc3611b67565b5b92915050565b600082825260208201905092915050565b7f4d7573742062652070726f706f736564206f776e657200000000000000000000600082015250565b6000611c11601683611bca565b9150611c1c82611bdb565b602082019050919050565b60006020820190508181036000830152611c4081611c04565b9050919050565b6000606082019050611c5c60008301866115ee565b611c6960208301856115ee565b611c7660408301846115ee565b949350505050565b7f4e487b7100000000000000000000000000000000000000000000000000000000600052603260045260246000fd5b7f4e487b7100000000000000000000000000000000000000000000000000000000600052601260045260246000fd5b6000611ce78261134e565b9150611cf28361134e565b925082611d0257611d01611cad565b5b828206905092915050565b600081905092915050565b50565b6000611d28600083611d0d565b9150611d3382611d18565b600082019050919050565b6000611d4982611d1b565b9150819050919050565b611d5c816117a2565b82525050565b602082016000820151611d786000850182611d53565b50505050565b6000602082019050611d936000830184611d62565b92915050565b7f4f6e6c792063616c6c61626c65206279206f776e657200000000000000000000600082015250565b6000611dcf601683611bca565b9150611dda82611d99565b602082019050919050565b60006020820190508181036000830152611dfe81611dc2565b9050919050565b7f43616e6e6f74207472616e7366657220746f2073656c66000000000000000000600082015250565b6000611e3b601783611bca565b9150611e4682611e05565b602082019050919050565b60006020820190508181036000830152611e6a81611e2e565b905091905056fea2646970667358221220639294956e4081b3f5248fd1ce40c75d6b28a0d6c3cd8ddf083e3c19377078f564736f6c634300081c0033",
  "devdoc": {
    "kind": "dev",
    "methods": {
      "checkUpkeep(bytes)": {
        "details": "This is the function that the Chainlink Automation nodes call to see if it's time to perform an upkeep. The following should be true for this to return true: 1. The time interval has passed between raffle runs. 2. The lottery is open. 3. The contract has ETH. 4. Implicitly, your subscription is funded with LINK."
      },
      "performUpkeep(bytes)": {
        "details": "Once `checkUpkeep` is returning `true`, this function is called and it kicks off a Chainlink VRF call to get a random winner."
      }
    },
    "version": 1
  },
  "userdoc": {
    "kind": "user",
    "methods": {
      "acceptOwnership()": {
        "notice": "Allows an ownership transfer to be completed by the recipient."
      },
      "getRaffleState()": {
        "notice": "Getter Functions "
      },
      "owner()": {
        "notice": "Get the current owner"
      },
      "setCoordinator(address)": {
        "notice": "Sets the VRF Coordinator addressThis method should only be callable by the coordinator or contract owner"
      },
      "transferOwnership(address)": {
        "notice": "Allows an owner to begin transferring ownership to a new address."
      }
    },
    "version": 1
  },
  "storageLayout": {
    "storage": [
      {
        "astId": 97,
        "contract": "contracts/Raffle.sol:Raffle",
        "label": "s_owner",
        "offset": 0,
        "slot": "0",
        "type": "t_address"
      },
      {
        "astId": 99,
        "contract": "contracts/Raffle.sol:Raffle",
        "label": "s_pendingOwner",
        "offset": 0,
        "slot": "1",
        "type": "t_address"
      },
      {
        "astId": 299,
        "contract": "contracts/Raffle.sol:Raffle",
        "label": "s_vrfCoordinator",
        "offset": 0,
        "slot": "2",
        "type": "t_contract(IVRFCoordinatorV2Plus)448"
      },
      {
        "astId": 615,
        "contract": "contracts/Raffle.sol:Raffle",
        "label": "s_players",
        "offset": 0,
        "slot": "3",
        "type": "t_array(t_address_payable)dyn_storage"
      },
      {
        "astId": 617,
        "contract": "contracts/Raffle.sol:Raffle",
        "label": "s_lastTimeStamp",
        "offset": 0,
        "slot": "4",
        "type": "t_uint256"
      },
      {
        "astId": 619,
        "contract": "contracts/Raffle.sol:Raffle",
        "label": "s_recentWinner",
        "offset": 0,
        "slot": "5",
        "type": "t_address"
      },
      {
        "astId": 622,
        "contract": "contracts/Raffle.sol:Raffle",
        "label": "s_raffleState",
        "offset": 20,
        "slot": "5",
        "type": "t_enum(RaffleState)608"
      }
    ],
    "types": {
      "t_address": {
        "encoding": "inplace",
        "label": "address",
        "numberOfBytes": "20"
      },
      "t_address_payable": {
        "encoding": "inplace",
        "label": "address payable",
        "numberOfBytes": "20"
      },
      "t_array(t_address_payable)dyn_storage": {
        "base": "t_address_payable",
        "encoding": "dynamic_array",
        "label": "address payable[]",
        "numberOfBytes": "32"
      },
      "t_contract(IVRFCoordinatorV2Plus)448": {
        "encoding": "inplace",
        "label": "contract IVRFCoordinatorV2Plus",
        "numberOfBytes": "20"
      },
      "t_enum(RaffleState)608": {
        "encoding": "inplace",
        "label": "enum Raffle.RaffleState",
        "numberOfBytes": "1"
      },
      "t_uint256": {
        "encoding": "inplace",
        "label": "uint256",
        "numberOfBytes": "32"
      }
    }
  }
}