{
  "address": "0x03323545d8f08738dbe8Ad08BEd91A086472047F",
  "abi": [
    {
      "inputs": [
        {
          "internalType": "uint256",
          "name": "entranceFee",
          "type": "uint256"
        },
        {
          "internalType": "address",
          "name": "vrfCoordinatorV2",
          "type": "address"
        },
        {
          "internalType": "bytes32",
          "name": "gasLane",
          "type": "bytes32"
        },
        {
          "internalType": "uint64",
          "name": "subscriptionId",
          "type": "uint64"
        },
        {
          "internalType": "uint32",
          "name": "callbackGasLimit",
          "type": "uint32"
        },
        {
          "internalType": "uint256",
          "name": "interval",
          "type": "uint256"
        }
      ],
      "stateMutability": "nonpayable",
      "type": "constructor"
    },
    {
      "inputs": [
        {
          "internalType": "address",
          "name": "have",
          "type": "address"
        },
        {
          "internalType": "address",
          "name": "want",
          "type": "address"
        }
      ],
      "name": "OnlyCoordinatorCanFulfill",
      "type": "error"
    },
    {
      "inputs": [],
      "name": "Raffle_Not_enough_ETH",
      "type": "error"
    },
    {
      "inputs": [],
      "name": "Raffle_Transfer_Failed",
      "type": "error"
    },
    {
      "inputs": [],
      "name": "Raffle__Not_Open",
      "type": "error"
    },
    {
      "inputs": [
        {
          "internalType": "uint256",
          "name": "currentBalance",
          "type": "uint256"
        },
        {
          "internalType": "uint256",
          "name": "players",
          "type": "uint256"
        },
        {
          "internalType": "uint256",
          "name": "raffleState",
          "type": "uint256"
        }
      ],
      "name": "Raffle__upkeepNotNeeded",
      "type": "error"
    },
    {
      "anonymous": false,
      "inputs": [
        {
          "indexed": true,
          "internalType": "address",
          "name": "player",
          "type": "address"
        }
      ],
      "name": "RaffleEnter",
      "type": "event"
    },
    {
      "anonymous": false,
      "inputs": [
        {
          "indexed": true,
          "internalType": "uint256",
          "name": "requestId",
          "type": "uint256"
        }
      ],
      "name": "RequestedRaffleWinner",
      "type": "event"
    },
    {
      "anonymous": false,
      "inputs": [
        {
          "indexed": true,
          "internalType": "address",
          "name": "winner",
          "type": "address"
        }
      ],
      "name": "WinnerPicked",
      "type": "event"
    },
    {
      "inputs": [
        {
          "internalType": "bytes",
          "name": "",
          "type": "bytes"
        }
      ],
      "name": "checkUpkeep",
      "outputs": [
        {
          "internalType": "bool",
          "name": "upkeepNeeded",
          "type": "bool"
        },
        {
          "internalType": "bytes",
          "name": "",
          "type": "bytes"
        }
      ],
      "stateMutability": "view",
      "type": "function"
    },
    {
      "inputs": [],
      "name": "enterRaffle",
      "outputs": [],
      "stateMutability": "payable",
      "type": "function"
    },
    {
      "inputs": [],
      "name": "geTRequestConfirmatioons",
      "outputs": [
        {
          "internalType": "uint256",
          "name": "",
          "type": "uint256"
        }
      ],
      "stateMutability": "pure",
      "type": "function"
    },
    {
      "inputs": [],
      "name": "getEntranceFee",
      "outputs": [
        {
          "internalType": "uint256",
          "name": "",
          "type": "uint256"
        }
      ],
      "stateMutability": "view",
      "type": "function"
    },
    {
      "inputs": [],
      "name": "getInterval",
      "outputs": [
        {
          "internalType": "uint256",
          "name": "",
          "type": "uint256"
        }
      ],
      "stateMutability": "view",
      "type": "function"
    },
    {
      "inputs": [],
      "name": "getLatestTimeStamp",
      "outputs": [
        {
          "internalType": "uint256",
          "name": "",
          "type": "uint256"
        }
      ],
      "stateMutability": "view",
      "type": "function"
    },
    {
      "inputs": [],
      "name": "getNumWords",
      "outputs": [
        {
          "internalType": "uint32",
          "name": "",
          "type": "uint32"
        }
      ],
      "stateMutability": "pure",
      "type": "function"
    },
    {
      "inputs": [],
      "name": "getNumberOfPlayers",
      "outputs": [
        {
          "internalType": "uint256",
          "name": "",
          "type": "uint256"
        }
      ],
      "stateMutability": "view",
      "type": "function"
    },
    {
      "inputs": [
        {
          "internalType": "uint256",
          "name": "index",
          "type": "uint256"
        }
      ],
      "name": "getPlayer",
      "outputs": [
        {
          "internalType": "address",
          "name": "",
          "type": "address"
        }
      ],
      "stateMutability": "view",
      "type": "function"
    },
    {
      "inputs": [],
      "name": "getRaffleState",
      "outputs": [
        {
          "internalType": "enum Raffle.RaffleState",
          "name": "",
          "type": "uint8"
        }
      ],
      "stateMutability": "view",
      "type": "function"
    },
    {
      "inputs": [],
      "name": "getRecentWinner",
      "outputs": [
        {
          "internalType": "address",
          "name": "",
          "type": "address"
        }
      ],
      "stateMutability": "view",
      "type": "function"
    },
    {
      "inputs": [
        {
          "internalType": "bytes",
          "name": "",
          "type": "bytes"
        }
      ],
      "name": "performUpkeep",
      "outputs": [],
      "stateMutability": "nonpayable",
      "type": "function"
    },
    {
      "inputs": [
        {
          "internalType": "uint256",
          "name": "requestId",
          "type": "uint256"
        },
        {
          "internalType": "uint256[]",
          "name": "randomWords",
          "type": "uint256[]"
        }
      ],
      "name": "rawFulfillRandomWords",
      "outputs": [],
      "stateMutability": "nonpayable",
      "type": "function"
    }
  ],
  "transactionHash": "0xc9cd64533c02cbe467a9ea898f20754fb5f78c75334b0e1690b4f6680d70744f",
  "args": [
    "1000000000000000",
    "0x9DdfaCa8183c41ad55329BdeeD9F6A8d53168B1B",
    "0x787d74caea10b2b357790d5b5247c2f63d1d91572a9846f780606e4d953677ae",
    6601,
    "100000",
    "30"
  ],
  "numDeployments": 4,
  "solcInputHash": "e9d6a6ee1ec99f5de44d49b0a1c99bc7",
  "bytecode": "0x61014060405234801561001157600080fd5b506040516117943803806117948339818101604052810190610033919061026e565b848073ffffffffffffffffffffffffffffffffffffffff1660808173ffffffffffffffffffffffffffffffffffffffff1681525050508473ffffffffffffffffffffffffffffffffffffffff1660c08173ffffffffffffffffffffffffffffffffffffffff16815250508560a081815250508360e081815250508267ffffffffffffffff166101008167ffffffffffffffff16815250508163ffffffff166101208163ffffffff16815250506000600360146101000a81548160ff02191690836003811115610105576101046102fb565b5b0217905550426001819055508060028190555050505050505061032a565b600080fd5b6000819050919050565b61013b81610128565b811461014657600080fd5b50565b60008151905061015881610132565b92915050565b600073ffffffffffffffffffffffffffffffffffffffff82169050919050565b60006101898261015e565b9050919050565b6101998161017e565b81146101a457600080fd5b50565b6000815190506101b681610190565b92915050565b6000819050919050565b6101cf816101bc565b81146101da57600080fd5b50565b6000815190506101ec816101c6565b92915050565b600067ffffffffffffffff82169050919050565b61020f816101f2565b811461021a57600080fd5b50565b60008151905061022c81610206565b92915050565b600063ffffffff82169050919050565b61024b81610232565b811461025657600080fd5b50565b60008151905061026881610242565b92915050565b60008060008060008060c0878903121561028b5761028a610123565b5b600061029989828a01610149565b96505060206102aa89828a016101a7565b95505060406102bb89828a016101dd565b94505060606102cc89828a0161021d565b93505060806102dd89828a01610259565b92505060a06102ee89828a01610149565b9150509295509295509295565b7f4e487b7100000000000000000000000000000000000000000000000000000000600052602160045260246000fd5b60805160a05160c05160e051610100516101205161140d61038760003960006106b3015260006106900152600061066f015260006106330152600081816102fa01526104040152600081816103440152610398015261140d6000f3fe6080604052600436106100c25760003560e01c80634585e33b1161007f5780636e04ff0d116100595780636e04ff0d1461022557806391ad27b414610263578063e55ae4e81461028e578063fd6673f5146102cb576100c2565b80634585e33b146101a6578063473f1ddc146101cf57806353a2c19a146101fa576100c2565b806309bc33a7146100c75780630b9ce452146100f2578063115cbaf51461011d5780631fe543e3146101485780632cfcc53914610171578063320229eb1461017b575b600080fd5b3480156100d357600080fd5b506100dc6102f6565b6040516100e99190610b7c565b60405180910390f35b3480156100fe57600080fd5b5061010761031e565b6040516101149190610b7c565b60405180910390f35b34801561012957600080fd5b5061013261032b565b60405161013f9190610c0e565b60405180910390f35b34801561015457600080fd5b5061016f600480360381019061016a9190610dc2565b610342565b005b610179610402565b005b34801561018757600080fd5b50610190610571565b60405161019d9190610b7c565b60405180910390f35b3480156101b257600080fd5b506101cd60048036038101906101c89190610e79565b61057b565b005b3480156101db57600080fd5b506101e461076c565b6040516101f19190610f07565b60405180910390f35b34801561020657600080fd5b5061020f610796565b60405161021c9190610f41565b60405180910390f35b34801561023157600080fd5b5061024c60048036038101906102479190611011565b61079f565b60405161025a9291906110f4565b60405180910390f35b34801561026f57600080fd5b5061027861082e565b6040516102859190610b7c565b60405180910390f35b34801561029a57600080fd5b506102b560048036038101906102b09190611124565b610838565b6040516102c29190610f07565b60405180910390f35b3480156102d757600080fd5b506102e061087f565b6040516102ed9190610b7c565b60405180910390f35b60007f0000000000000000000000000000000000000000000000000000000000000000905090565b6000600361ffff16905090565b6000600360149054906101000a900460ff16905090565b7f000000000000000000000000000000000000000000000000000000000000000073ffffffffffffffffffffffffffffffffffffffff163373ffffffffffffffffffffffffffffffffffffffff16146103f457337f00000000000000000000000000000000000000000000000000000000000000006040517f1cf993f40000000000000000000000000000000000000000000000000000000081526004016103eb929190611151565b60405180910390fd5b6103fe828261088b565b5050565b7f000000000000000000000000000000000000000000000000000000000000000034101561045c576040517fa997b41400000000000000000000000000000000000000000000000000000000815260040160405180910390fd5b600060038111156104705761046f610b97565b5b600360149054906101000a900460ff16600381111561049257610491610b97565b5b146104c9576040517f32026ca100000000000000000000000000000000000000000000000000000000815260040160405180910390fd5b6000339080600181540180825580915050600190039060005260206000200160009091909190916101000a81548173ffffffffffffffffffffffffffffffffffffffff021916908373ffffffffffffffffffffffffffffffffffffffff1602179055503373ffffffffffffffffffffffffffffffffffffffff167f0805e1d667bddb8a95f0f09880cf94f403fb596ce79928d9f29b74203ba284d460405160405180910390a2565b6000600154905090565b60006105956040518060200160405280600081525061079f565b509050806106045747600080549050600360149054906101000a900460ff1660038111156105c6576105c5610b97565b5b6040517f837325cd0000000000000000000000000000000000000000000000000000000081526004016105fb9392919061117a565b60405180910390fd5b6001600360146101000a81548160ff0219169083600381111561062a57610629610b97565b5b021790555060007f000000000000000000000000000000000000000000000000000000000000000073ffffffffffffffffffffffffffffffffffffffff16635d3b1d307f00000000000000000000000000000000000000000000000000000000000000007f000000000000000000000000000000000000000000000000000000000000000060037f000000000000000000000000000000000000000000000000000000000000000060016040518663ffffffff1660e01b81526004016106f495949392919061120a565b6020604051808303816000875af1158015610713573d6000803e3d6000fd5b505050506040513d601f19601f820116820180604052508101906107379190611272565b9050807fcd6e45c8998311cab7e9d4385596cac867e20a0587194b954fa3a731c93ce78b60405160405180910390a250505050565b6000600360009054906101000a900473ffffffffffffffffffffffffffffffffffffffff16905090565b60006001905090565b600060606000600360149054906101000a900460ff1660038111156107c7576107c6610b97565b5b600060038111156107db576107da610b97565b5b1490506000600254600154426107f191906112ce565b119050600080600080549050119050600080471190508380156108115750825b801561081a5750805b80156108235750815b955050505050915091565b6000600254905090565b600080828154811061084d5761084c611302565b5b9060005260206000200160009054906101000a900473ffffffffffffffffffffffffffffffffffffffff169050919050565b60008080549050905090565b60008080549050826000815181106108a6576108a5611302565b5b60200260200101516108b89190611360565b905060008082815481106108cf576108ce611302565b5b9060005260206000200160009054906101000a900473ffffffffffffffffffffffffffffffffffffffff16905080600360006101000a81548173ffffffffffffffffffffffffffffffffffffffff021916908373ffffffffffffffffffffffffffffffffffffffff1602179055506000600360146101000a81548160ff0219169083600381111561096357610962610b97565b5b0217905550600067ffffffffffffffff81111561098357610982610c7f565b5b6040519080825280602002602001820160405280156109b15781602001602082028036833780820191505090505b50600090805190602001906109c7929190610abc565b504260018190555060008173ffffffffffffffffffffffffffffffffffffffff16476040516109f5906113c2565b60006040518083038185875af1925050503d8060008114610a32576040519150601f19603f3d011682016040523d82523d6000602084013e610a37565b606091505b5050905080610a72576040517f63fb383e00000000000000000000000000000000000000000000000000000000815260040160405180910390fd5b8173ffffffffffffffffffffffffffffffffffffffff167f5b690ec4a06fe979403046eaeea5b3ce38524683c3001f662c8b5a829632f7df60405160405180910390a25050505050565b828054828255906000526020600020908101928215610b35579160200282015b82811115610b345782518260006101000a81548173ffffffffffffffffffffffffffffffffffffffff021916908373ffffffffffffffffffffffffffffffffffffffff16021790555091602001919060010190610adc565b5b509050610b429190610b46565b5090565b5b80821115610b5f576000816000905550600101610b47565b5090565b6000819050919050565b610b7681610b63565b82525050565b6000602082019050610b916000830184610b6d565b92915050565b7f4e487b7100000000000000000000000000000000000000000000000000000000600052602160045260246000fd5b60048110610bd757610bd6610b97565b5b50565b6000819050610be882610bc6565b919050565b6000610bf882610bda565b9050919050565b610c0881610bed565b82525050565b6000602082019050610c236000830184610bff565b92915050565b6000604051905090565b600080fd5b600080fd5b610c4681610b63565b8114610c5157600080fd5b50565b600081359050610c6381610c3d565b92915050565b600080fd5b6000601f19601f8301169050919050565b7f4e487b7100000000000000000000000000000000000000000000000000000000600052604160045260246000fd5b610cb782610c6e565b810181811067ffffffffffffffff82111715610cd657610cd5610c7f565b5b80604052505050565b6000610ce9610c29565b9050610cf58282610cae565b919050565b600067ffffffffffffffff821115610d1557610d14610c7f565b5b602082029050602081019050919050565b600080fd5b6000610d3e610d3984610cfa565b610cdf565b90508083825260208201905060208402830185811115610d6157610d60610d26565b5b835b81811015610d8a5780610d768882610c54565b845260208401935050602081019050610d63565b5050509392505050565b600082601f830112610da957610da8610c69565b5b8135610db9848260208601610d2b565b91505092915050565b60008060408385031215610dd957610dd8610c33565b5b6000610de785828601610c54565b925050602083013567ffffffffffffffff811115610e0857610e07610c38565b5b610e1485828601610d94565b9150509250929050565b600080fd5b60008083601f840112610e3957610e38610c69565b5b8235905067ffffffffffffffff811115610e5657610e55610e1e565b5b602083019150836001820283011115610e7257610e71610d26565b5b9250929050565b60008060208385031215610e9057610e8f610c33565b5b600083013567ffffffffffffffff811115610eae57610ead610c38565b5b610eba85828601610e23565b92509250509250929050565b600073ffffffffffffffffffffffffffffffffffffffff82169050919050565b6000610ef182610ec6565b9050919050565b610f0181610ee6565b82525050565b6000602082019050610f1c6000830184610ef8565b92915050565b600063ffffffff82169050919050565b610f3b81610f22565b82525050565b6000602082019050610f566000830184610f32565b92915050565b600080fd5b600067ffffffffffffffff821115610f7c57610f7b610c7f565b5b610f8582610c6e565b9050602081019050919050565b82818337600083830152505050565b6000610fb4610faf84610f61565b610cdf565b905082815260208101848484011115610fd057610fcf610f5c565b5b610fdb848285610f92565b509392505050565b600082601f830112610ff857610ff7610c69565b5b8135611008848260208601610fa1565b91505092915050565b60006020828403121561102757611026610c33565b5b600082013567ffffffffffffffff81111561104557611044610c38565b5b61105184828501610fe3565b91505092915050565b60008115159050919050565b61106f8161105a565b82525050565b600081519050919050565b600082825260208201905092915050565b60005b838110156110af578082015181840152602081019050611094565b60008484015250505050565b60006110c682611075565b6110d08185611080565b93506110e0818560208601611091565b6110e981610c6e565b840191505092915050565b60006040820190506111096000830185611066565b818103602083015261111b81846110bb565b90509392505050565b60006020828403121561113a57611139610c33565b5b600061114884828501610c54565b91505092915050565b60006040820190506111666000830185610ef8565b6111736020830184610ef8565b9392505050565b600060608201905061118f6000830186610b6d565b61119c6020830185610b6d565b6111a96040830184610b6d565b949350505050565b6000819050919050565b6111c4816111b1565b82525050565b600067ffffffffffffffff82169050919050565b6111e7816111ca565b82525050565b600061ffff82169050919050565b611204816111ed565b82525050565b600060a08201905061121f60008301886111bb565b61122c60208301876111de565b61123960408301866111fb565b6112466060830185610f32565b6112536080830184610f32565b9695505050505050565b60008151905061126c81610c3d565b92915050565b60006020828403121561128857611287610c33565b5b60006112968482850161125d565b91505092915050565b7f4e487b7100000000000000000000000000000000000000000000000000000000600052601160045260246000fd5b60006112d982610b63565b91506112e483610b63565b92508282039050818111156112fc576112fb61129f565b5b92915050565b7f4e487b7100000000000000000000000000000000000000000000000000000000600052603260045260246000fd5b7f4e487b7100000000000000000000000000000000000000000000000000000000600052601260045260246000fd5b600061136b82610b63565b915061137683610b63565b92508261138657611385611331565b5b828206905092915050565b600081905092915050565b50565b60006113ac600083611391565b91506113b78261139c565b600082019050919050565b60006113cd8261139f565b915081905091905056fea2646970667358221220766861ebbcf8fb50a48c70b43e364f58a41377d85e4bd3297c9d99eecd66146264736f6c634300081c0033",
  "devdoc": {
    "author": "Sourya Adhikary",
    "details": "this implements chainlinkVrfV2 and ca=hainlink keppers",
    "kind": "dev",
    "methods": {
      "checkUpkeep(bytes)": {
        "details": "this is the function that the chainlink keppers node calls they for 'upkeepNeeded' to be true following is needed to be true 1.time interval should have passed 2.lottery should have atlease one player and some eth 3.our subscription in funded with link 4.lottery should be in open state"
      }
    },
    "title": "A simple Raffle contract",
    "version": 1
  },
  "userdoc": {
    "kind": "user",
    "methods": {},
    "notice": "This contract is for creating an untamparable decentralized smart contract",
    "version": 1
  },
  "storageLayout": {
    "storage": [
      {
        "astId": 256,
        "contract": "contracts/Raffle.sol:Raffle",
        "label": "s_players",
        "offset": 0,
        "slot": "0",
        "type": "t_array(t_address_payable)dyn_storage"
      },
      {
        "astId": 275,
        "contract": "contracts/Raffle.sol:Raffle",
        "label": "s_lastTimeStamp",
        "offset": 0,
        "slot": "1",
        "type": "t_uint256"
      },
      {
        "astId": 277,
        "contract": "contracts/Raffle.sol:Raffle",
        "label": "s_interval",
        "offset": 0,
        "slot": "2",
        "type": "t_uint256"
      },
      {
        "astId": 279,
        "contract": "contracts/Raffle.sol:Raffle",
        "label": "s_recentWinner",
        "offset": 0,
        "slot": "3",
        "type": "t_address"
      },
      {
        "astId": 282,
        "contract": "contracts/Raffle.sol:Raffle",
        "label": "s_raffleState",
        "offset": 20,
        "slot": "3",
        "type": "t_enum(RaffleState)253"
      }
    ],
    "types": {
      "t_address": {
        "encoding": "inplace",
        "label": "address",
        "numberOfBytes": "20"
      },
      "t_address_payable": {
        "encoding": "inplace",
        "label": "address payable",
        "numberOfBytes": "20"
      },
      "t_array(t_address_payable)dyn_storage": {
        "base": "t_address_payable",
        "encoding": "dynamic_array",
        "label": "address payable[]",
        "numberOfBytes": "32"
      },
      "t_enum(RaffleState)253": {
        "encoding": "inplace",
        "label": "enum Raffle.RaffleState",
        "numberOfBytes": "1"
      },
      "t_uint256": {
        "encoding": "inplace",
        "label": "uint256",
        "numberOfBytes": "32"
      }
    }
  }
}